{
  "_format": "hh-sol-artifact-1",
  "contractName": "NFTMarketPlace",
  "sourceName": "contracts/NftMarketPlace.sol",
  "abi": [
    {
      "inputs": [],
      "stateMutability": "nonpayable",
      "type": "constructor"
    },
    {
      "anonymous": false,
      "inputs": [
        {
          "indexed": true,
          "internalType": "address",
          "name": "owner",
          "type": "address"
        },
        {
          "indexed": true,
          "internalType": "address",
          "name": "approved",
          "type": "address"
        },
        {
          "indexed": true,
          "internalType": "uint256",
          "name": "tokenId",
          "type": "uint256"
        }
      ],
      "name": "Approval",
      "type": "event"
    },
    {
      "anonymous": false,
      "inputs": [
        {
          "indexed": true,
          "internalType": "address",
          "name": "owner",
          "type": "address"
        },
        {
          "indexed": true,
          "internalType": "address",
          "name": "operator",
          "type": "address"
        },
        {
          "indexed": false,
          "internalType": "bool",
          "name": "approved",
          "type": "bool"
        }
      ],
      "name": "ApprovalForAll",
      "type": "event"
    },
    {
      "anonymous": false,
      "inputs": [
        {
          "indexed": false,
          "internalType": "uint256",
          "name": "_fromTokenId",
          "type": "uint256"
        },
        {
          "indexed": false,
          "internalType": "uint256",
          "name": "_toTokenId",
          "type": "uint256"
        }
      ],
      "name": "BatchMetadataUpdate",
      "type": "event"
    },
    {
      "anonymous": false,
      "inputs": [
        {
          "indexed": false,
          "internalType": "uint256",
          "name": "_tokenId",
          "type": "uint256"
        }
      ],
      "name": "MetadataUpdate",
      "type": "event"
    },
    {
      "anonymous": false,
      "inputs": [
        {
          "indexed": true,
          "internalType": "address",
          "name": "from",
          "type": "address"
        },
        {
          "indexed": true,
          "internalType": "address",
          "name": "to",
          "type": "address"
        },
        {
          "indexed": true,
          "internalType": "uint256",
          "name": "tokenId",
          "type": "uint256"
        }
      ],
      "name": "Transfer",
      "type": "event"
    },
    {
      "anonymous": false,
      "inputs": [
        {
          "indexed": true,
          "internalType": "uint256",
          "name": "tokenId",
          "type": "uint256"
        },
        {
          "indexed": false,
          "internalType": "address",
          "name": "seller",
          "type": "address"
        },
        {
          "indexed": false,
          "internalType": "address",
          "name": "owner",
          "type": "address"
        },
        {
          "indexed": false,
          "internalType": "uint256",
          "name": "price",
          "type": "uint256"
        },
        {
          "indexed": false,
          "internalType": "bool",
          "name": "sold",
          "type": "bool"
        }
      ],
      "name": "idMarketItemCreated",
      "type": "event"
    },
    {
      "inputs": [
        {
          "internalType": "uint256",
          "name": "tokenId",
          "type": "uint256"
        }
      ],
      "name": "CreateMarketsale",
      "outputs": [],
      "stateMutability": "payable",
      "type": "function"
    },
    {
      "inputs": [
        {
          "internalType": "string",
          "name": "tokenURI",
          "type": "string"
        },
        {
          "internalType": "uint256",
          "name": "price",
          "type": "uint256"
        }
      ],
      "name": "CreateToken",
      "outputs": [
        {
          "internalType": "uint256",
          "name": "",
          "type": "uint256"
        }
      ],
      "stateMutability": "payable",
      "type": "function"
    },
    {
      "inputs": [],
      "name": "ListingPrice",
      "outputs": [
        {
          "internalType": "uint256",
          "name": "",
          "type": "uint256"
        }
      ],
      "stateMutability": "view",
      "type": "function"
    },
    {
      "inputs": [
        {
          "internalType": "uint256",
          "name": "tokenId",
          "type": "uint256"
        },
        {
          "internalType": "uint256",
          "name": "price",
          "type": "uint256"
        }
      ],
      "name": "ReSellToken",
      "outputs": [],
      "stateMutability": "payable",
      "type": "function"
    },
    {
      "inputs": [
        {
          "internalType": "uint256",
          "name": "_ListingPrice",
          "type": "uint256"
        }
      ],
      "name": "UpdateListingprice",
      "outputs": [],
      "stateMutability": "payable",
      "type": "function"
    },
    {
      "inputs": [
        {
          "internalType": "address",
          "name": "to",
          "type": "address"
        },
        {
          "internalType": "uint256",
          "name": "tokenId",
          "type": "uint256"
        }
      ],
      "name": "approve",
      "outputs": [],
      "stateMutability": "nonpayable",
      "type": "function"
    },
    {
      "inputs": [
        {
          "internalType": "address",
          "name": "owner",
          "type": "address"
        }
      ],
      "name": "balanceOf",
      "outputs": [
        {
          "internalType": "uint256",
          "name": "",
          "type": "uint256"
        }
      ],
      "stateMutability": "view",
      "type": "function"
    },
    {
      "inputs": [],
      "name": "fetchItemListed",
      "outputs": [
        {
          "components": [
            {
              "internalType": "uint256",
              "name": "tokenId",
              "type": "uint256"
            },
            {
              "internalType": "address payable",
              "name": "seller",
              "type": "address"
            },
            {
              "internalType": "address payable",
              "name": "owner",
              "type": "address"
            },
            {
              "internalType": "uint256",
              "name": "price",
              "type": "uint256"
            },
            {
              "internalType": "bool",
              "name": "sold",
              "type": "bool"
            }
          ],
          "internalType": "struct NFTMarketPlace.MarketItem[]",
          "name": "",
          "type": "tuple[]"
        }
      ],
      "stateMutability": "view",
      "type": "function"
    },
    {
      "inputs": [],
      "name": "fetchMyNFT",
      "outputs": [
        {
          "components": [
            {
              "internalType": "uint256",
              "name": "tokenId",
              "type": "uint256"
            },
            {
              "internalType": "address payable",
              "name": "seller",
              "type": "address"
            },
            {
              "internalType": "address payable",
              "name": "owner",
              "type": "address"
            },
            {
              "internalType": "uint256",
              "name": "price",
              "type": "uint256"
            },
            {
              "internalType": "bool",
              "name": "sold",
              "type": "bool"
            }
          ],
          "internalType": "struct NFTMarketPlace.MarketItem[]",
          "name": "",
          "type": "tuple[]"
        }
      ],
      "stateMutability": "view",
      "type": "function"
    },
    {
      "inputs": [],
      "name": "fetchmarketitem",
      "outputs": [
        {
          "components": [
            {
              "internalType": "uint256",
              "name": "tokenId",
              "type": "uint256"
            },
            {
              "internalType": "address payable",
              "name": "seller",
              "type": "address"
            },
            {
              "internalType": "address payable",
              "name": "owner",
              "type": "address"
            },
            {
              "internalType": "uint256",
              "name": "price",
              "type": "uint256"
            },
            {
              "internalType": "bool",
              "name": "sold",
              "type": "bool"
            }
          ],
          "internalType": "struct NFTMarketPlace.MarketItem[]",
          "name": "",
          "type": "tuple[]"
        }
      ],
      "stateMutability": "view",
      "type": "function"
    },
    {
      "inputs": [
        {
          "internalType": "uint256",
          "name": "tokenId",
          "type": "uint256"
        }
      ],
      "name": "getApproved",
      "outputs": [
        {
          "internalType": "address",
          "name": "",
          "type": "address"
        }
      ],
      "stateMutability": "view",
      "type": "function"
    },
    {
      "inputs": [],
      "name": "getListingPrice",
      "outputs": [
        {
          "internalType": "uint256",
          "name": "",
          "type": "uint256"
        }
      ],
      "stateMutability": "view",
      "type": "function"
    },
    {
      "inputs": [
        {
          "internalType": "address",
          "name": "owner",
          "type": "address"
        },
        {
          "internalType": "address",
          "name": "operator",
          "type": "address"
        }
      ],
      "name": "isApprovedForAll",
      "outputs": [
        {
          "internalType": "bool",
          "name": "",
          "type": "bool"
        }
      ],
      "stateMutability": "view",
      "type": "function"
    },
    {
      "inputs": [],
      "name": "name",
      "outputs": [
        {
          "internalType": "string",
          "name": "",
          "type": "string"
        }
      ],
      "stateMutability": "view",
      "type": "function"
    },
    {
      "inputs": [
        {
          "internalType": "uint256",
          "name": "tokenId",
          "type": "uint256"
        }
      ],
      "name": "ownerOf",
      "outputs": [
        {
          "internalType": "address",
          "name": "",
          "type": "address"
        }
      ],
      "stateMutability": "view",
      "type": "function"
    },
    {
      "inputs": [
        {
          "internalType": "address",
          "name": "from",
          "type": "address"
        },
        {
          "internalType": "address",
          "name": "to",
          "type": "address"
        },
        {
          "internalType": "uint256",
          "name": "tokenId",
          "type": "uint256"
        }
      ],
      "name": "safeTransferFrom",
      "outputs": [],
      "stateMutability": "nonpayable",
      "type": "function"
    },
    {
      "inputs": [
        {
          "internalType": "address",
          "name": "from",
          "type": "address"
        },
        {
          "internalType": "address",
          "name": "to",
          "type": "address"
        },
        {
          "internalType": "uint256",
          "name": "tokenId",
          "type": "uint256"
        },
        {
          "internalType": "bytes",
          "name": "data",
          "type": "bytes"
        }
      ],
      "name": "safeTransferFrom",
      "outputs": [],
      "stateMutability": "nonpayable",
      "type": "function"
    },
    {
      "inputs": [
        {
          "internalType": "address",
          "name": "operator",
          "type": "address"
        },
        {
          "internalType": "bool",
          "name": "approved",
          "type": "bool"
        }
      ],
      "name": "setApprovalForAll",
      "outputs": [],
      "stateMutability": "nonpayable",
      "type": "function"
    },
    {
      "inputs": [
        {
          "internalType": "bytes4",
          "name": "interfaceId",
          "type": "bytes4"
        }
      ],
      "name": "supportsInterface",
      "outputs": [
        {
          "internalType": "bool",
          "name": "",
          "type": "bool"
        }
      ],
      "stateMutability": "view",
      "type": "function"
    },
    {
      "inputs": [],
      "name": "symbol",
      "outputs": [
        {
          "internalType": "string",
          "name": "",
          "type": "string"
        }
      ],
      "stateMutability": "view",
      "type": "function"
    },
    {
      "inputs": [
        {
          "internalType": "uint256",
          "name": "tokenId",
          "type": "uint256"
        }
      ],
      "name": "tokenURI",
      "outputs": [
        {
          "internalType": "string",
          "name": "",
          "type": "string"
        }
      ],
      "stateMutability": "view",
      "type": "function"
    },
    {
      "inputs": [
        {
          "internalType": "address",
          "name": "from",
          "type": "address"
        },
        {
          "internalType": "address",
          "name": "to",
          "type": "address"
        },
        {
          "internalType": "uint256",
          "name": "tokenId",
          "type": "uint256"
        }
      ],
      "name": "transferFrom",
      "outputs": [],
      "stateMutability": "nonpayable",
      "type": "function"
    }
  ],
  "bytecode": "0x60806040526658d15e17628000600a553480156200001c57600080fd5b506040518060400160405280601381526020017f4e4654204d657461766572736520546f6b656e000000000000000000000000008152506040518060400160405280600581526020017f4e46544d5400000000000000000000000000000000000000000000000000000081525081600090816200009a919062000370565b508060019081620000ac919062000370565b50505033600960006101000a81548173ffffffffffffffffffffffffffffffffffffffff021916908373ffffffffffffffffffffffffffffffffffffffff16021790555062000457565b600081519050919050565b7f4e487b7100000000000000000000000000000000000000000000000000000000600052604160045260246000fd5b7f4e487b7100000000000000000000000000000000000000000000000000000000600052602260045260246000fd5b600060028204905060018216806200017857607f821691505b6020821081036200018e576200018d62000130565b5b50919050565b60008190508160005260206000209050919050565b60006020601f8301049050919050565b600082821b905092915050565b600060088302620001f87fffffffffffffffffffffffffffffffffffffffffffffffffffffffffffffffff82620001b9565b620002048683620001b9565b95508019841693508086168417925050509392505050565b6000819050919050565b6000819050919050565b6000620002516200024b62000245846200021c565b62000226565b6200021c565b9050919050565b6000819050919050565b6200026d8362000230565b620002856200027c8262000258565b848454620001c6565b825550505050565b600090565b6200029c6200028d565b620002a981848462000262565b505050565b5b81811015620002d157620002c560008262000292565b600181019050620002af565b5050565b601f8211156200032057620002ea8162000194565b620002f584620001a9565b8101602085101562000305578190505b6200031d6200031485620001a9565b830182620002ae565b50505b505050565b600082821c905092915050565b6000620003456000198460080262000325565b1980831691505092915050565b600062000360838362000332565b9150826002028217905092915050565b6200037b82620000f6565b67ffffffffffffffff81111562000397576200039662000101565b5b620003a382546200015f565b620003b0828285620002d5565b600060209050601f831160018114620003e85760008415620003d3578287015190505b620003df858262000352565b8655506200044f565b601f198416620003f88662000194565b60005b828110156200042257848901518255600182019150602085019450602081019050620003fb565b868310156200044257848901516200043e601f89168262000332565b8355505b6001600288020188555050505b505050505050565b6142a480620004676000396000f3fe6080604052600436106101355760003560e01c80636352211e116100ab578063a22cb4651161006f578063a22cb46514610404578063b88d4fde1461042d578063c18763f714610456578063c87b56dd14610481578063e1791445146104be578063e985e9c5146104e957610135565b80636352211e1461030457806370a08231146103415780638284fe291461037e57806395d89b41146103ae5780639dd7fc43146103d957610135565b8063095ea7b3116100fd578063095ea7b3146102175780630df57bf81461024057806312e855851461025c57806323b872dd1461028757806331bb54f8146102b057806342842e0e146102db57610135565b806301ffc9a71461013a5780630552b48c1461017757806305dd6cb11461019357806306fdde03146101af578063081812fc146101da575b600080fd5b34801561014657600080fd5b50610161600480360381019061015c9190612c00565b610526565b60405161016e9190612c48565b60405180910390f35b610191600480360381019061018c9190612c99565b610587565b005b6101ad60048036038101906101a89190612c99565b610621565b005b3480156101bb57600080fd5b506101c461084f565b6040516101d19190612d56565b60405180910390f35b3480156101e657600080fd5b5061020160048036038101906101fc9190612c99565b6108e1565b60405161020e9190612db9565b60405180910390f35b34801561022357600080fd5b5061023e60048036038101906102399190612e00565b610927565b005b61025a60048036038101906102559190612e40565b610a3e565b005b34801561026857600080fd5b50610271610c72565b60405161027e9190612e8f565b60405180910390f35b34801561029357600080fd5b506102ae60048036038101906102a99190612eaa565b610c7c565b005b3480156102bc57600080fd5b506102c5610cdc565b6040516102d29190612e8f565b60405180910390f35b3480156102e757600080fd5b5061030260048036038101906102fd9190612eaa565b610ce2565b005b34801561031057600080fd5b5061032b60048036038101906103269190612c99565b610d02565b6040516103389190612db9565b60405180910390f35b34801561034d57600080fd5b5061036860048036038101906103639190612efd565b610d88565b6040516103759190612e8f565b60405180910390f35b6103986004803603810190610393919061305f565b610e3f565b6040516103a59190612e8f565b60405180910390f35b3480156103ba57600080fd5b506103c3610e81565b6040516103d09190612d56565b60405180910390f35b3480156103e557600080fd5b506103ee610f13565b6040516103fb9190613211565b60405180910390f35b34801561041057600080fd5b5061042b6004803603810190610426919061325f565b61117b565b005b34801561043957600080fd5b50610454600480360381019061044f9190613340565b611191565b005b34801561046257600080fd5b5061046b6111f3565b6040516104789190613211565b60405180910390f35b34801561048d57600080fd5b506104a860048036038101906104a39190612c99565b6114df565b6040516104b59190612d56565b60405180910390f35b3480156104ca57600080fd5b506104d36115f1565b6040516104e09190613211565b60405180910390f35b3480156104f557600080fd5b50610510600480360381019061050b91906133c3565b6118dd565b60405161051d9190612c48565b60405180910390f35b6000634906490660e01b7bffffffffffffffffffffffffffffffffffffffffffffffffffffffff1916827bffffffffffffffffffffffffffffffffffffffffffffffffffffffff19161480610580575061057f82611971565b5b9050919050565b600960009054906101000a900473ffffffffffffffffffffffffffffffffffffffff1673ffffffffffffffffffffffffffffffffffffffff163373ffffffffffffffffffffffffffffffffffffffff1614610617576040517f08c379a000000000000000000000000000000000000000000000000000000000815260040161060e9061344f565b60405180910390fd5b80600a8190555050565b6000600b600083815260200190815260200160002060030154905080341461067e576040517f08c379a0000000000000000000000000000000000000000000000000000000008152600401610675906134bb565b60405180910390fd5b33600b600084815260200190815260200160002060020160006101000a81548173ffffffffffffffffffffffffffffffffffffffff021916908373ffffffffffffffffffffffffffffffffffffffff1602179055506001600b600084815260200190815260200160002060040160006101000a81548160ff0219169083151502179055506000600b600084815260200190815260200160002060010160006101000a81548173ffffffffffffffffffffffffffffffffffffffff021916908373ffffffffffffffffffffffffffffffffffffffff160217905550610763303384611a53565b600960009054906101000a900473ffffffffffffffffffffffffffffffffffffffff1673ffffffffffffffffffffffffffffffffffffffff166108fc600a549081150290604051600060405180830381858888f193505050501580156107cd573d6000803e3d6000fd5b50600b600083815260200190815260200160002060010160009054906101000a900473ffffffffffffffffffffffffffffffffffffffff1673ffffffffffffffffffffffffffffffffffffffff166108fc349081150290604051600060405180830381858888f1935050505015801561084a573d6000803e3d6000fd5b505050565b60606000805461085e9061350a565b80601f016020809104026020016040519081016040528092919081815260200182805461088a9061350a565b80156108d75780601f106108ac576101008083540402835291602001916108d7565b820191906000526020600020905b8154815290600101906020018083116108ba57829003601f168201915b5050505050905090565b60006108ec82611d4c565b6004600083815260200190815260200160002060009054906101000a900473ffffffffffffffffffffffffffffffffffffffff169050919050565b600061093282610d02565b90508073ffffffffffffffffffffffffffffffffffffffff168373ffffffffffffffffffffffffffffffffffffffff16036109a2576040517f08c379a0000000000000000000000000000000000000000000000000000000008152600401610999906135ad565b60405180910390fd5b8073ffffffffffffffffffffffffffffffffffffffff166109c1611d97565b73ffffffffffffffffffffffffffffffffffffffff1614806109f057506109ef816109ea611d97565b6118dd565b5b610a2f576040517f08c379a0000000000000000000000000000000000000000000000000000000008152600401610a269061363f565b60405180910390fd5b610a398383611d9f565b505050565b3373ffffffffffffffffffffffffffffffffffffffff16600b600084815260200190815260200160002060020160009054906101000a900473ffffffffffffffffffffffffffffffffffffffff1673ffffffffffffffffffffffffffffffffffffffff1614610ae2576040517f08c379a0000000000000000000000000000000000000000000000000000000008152600401610ad9906136ab565b60405180910390fd5b600a543414610b26576040517f08c379a0000000000000000000000000000000000000000000000000000000008152600401610b1d90613717565b60405180910390fd5b600b600083815260200190815260200160002060040160009054906101000a900460ff168015610b5f57506000610b5d6008611e58565b115b15610b6f57610b6e6008611e66565b5b6000600b600084815260200190815260200160002060040160006101000a81548160ff02191690831515021790555080600b60008481526020019081526020016000206003018190555033600b600084815260200190815260200160002060010160006101000a81548173ffffffffffffffffffffffffffffffffffffffff021916908373ffffffffffffffffffffffffffffffffffffffff16021790555030600b600084815260200190815260200160002060020160006101000a81548173ffffffffffffffffffffffffffffffffffffffff021916908373ffffffffffffffffffffffffffffffffffffffff160217905550610c6e333084611a53565b5050565b6000600a54905090565b610c8d610c87611d97565b82611ec2565b610ccc576040517f08c379a0000000000000000000000000000000000000000000000000000000008152600401610cc3906137a9565b60405180910390fd5b610cd7838383611a53565b505050565b600a5481565b610cfd83838360405180602001604052806000815250611191565b505050565b600080610d0e83611f57565b9050600073ffffffffffffffffffffffffffffffffffffffff168173ffffffffffffffffffffffffffffffffffffffff1603610d7f576040517f08c379a0000000000000000000000000000000000000000000000000000000008152600401610d7690613815565b60405180910390fd5b80915050919050565b60008073ffffffffffffffffffffffffffffffffffffffff168273ffffffffffffffffffffffffffffffffffffffff1603610df8576040517f08c379a0000000000000000000000000000000000000000000000000000000008152600401610def906138a7565b60405180910390fd5b600360008373ffffffffffffffffffffffffffffffffffffffff1673ffffffffffffffffffffffffffffffffffffffff168152602001908152602001600020549050919050565b6000610e4b6007611f94565b6000610e576007611e58565b9050610e633382611faa565b610e6d81856121c7565b610e77818461226b565b8091505092915050565b606060018054610e909061350a565b80601f0160208091040260200160405190810160405280929190818152602001828054610ebc9061350a565b8015610f095780601f10610ede57610100808354040283529160200191610f09565b820191906000526020600020905b815481529060010190602001808311610eec57829003601f168201915b5050505050905090565b60606000610f216007611e58565b90506000610f2f6008611e58565b610f396007611e58565b610f4391906138f6565b90506000808267ffffffffffffffff811115610f6257610f61612f34565b5b604051908082528060200260200182016040528015610f9b57816020015b610f88612b37565b815260200190600190039081610f805790505b50905060005b84811015611170573073ffffffffffffffffffffffffffffffffffffffff16600b6000600184610fd1919061392a565b815260200190815260200160002060020160009054906101000a900473ffffffffffffffffffffffffffffffffffffffff1673ffffffffffffffffffffffffffffffffffffffff160361115d57600060018261102d919061392a565b90506000600b60008381526020019081526020016000209050806040518060a0016040529081600082015481526020016001820160009054906101000a900473ffffffffffffffffffffffffffffffffffffffff1673ffffffffffffffffffffffffffffffffffffffff1673ffffffffffffffffffffffffffffffffffffffff1681526020016002820160009054906101000a900473ffffffffffffffffffffffffffffffffffffffff1673ffffffffffffffffffffffffffffffffffffffff1673ffffffffffffffffffffffffffffffffffffffff168152602001600382015481526020016004820160009054906101000a900460ff1615151515815250508486815181106111405761113f61395e565b5b6020026020010181905250600185611158919061392a565b945050505b80806111689061398d565b915050610fa1565b508094505050505090565b61118d611186611d97565b838361246e565b5050565b6111a261119c611d97565b83611ec2565b6111e1576040517f08c379a00000000000000000000000000000000000000000000000000000000081526004016111d8906137a9565b60405180910390fd5b6111ed848484846125da565b50505050565b606060006112016007611e58565b905060008060005b838110156112a9573373ffffffffffffffffffffffffffffffffffffffff16600b6000600184611239919061392a565b815260200190815260200160002060020160009054906101000a900473ffffffffffffffffffffffffffffffffffffffff1673ffffffffffffffffffffffffffffffffffffffff160361129657600183611293919061392a565b92505b80806112a19061398d565b915050611209565b5060008267ffffffffffffffff8111156112c6576112c5612f34565b5b6040519080825280602002602001820160405280156112ff57816020015b6112ec612b37565b8152602001906001900390816112e45790505b50905060005b848110156114d4573373ffffffffffffffffffffffffffffffffffffffff16600b6000600184611335919061392a565b815260200190815260200160002060020160009054906101000a900473ffffffffffffffffffffffffffffffffffffffff1673ffffffffffffffffffffffffffffffffffffffff16036114c1576000600182611391919061392a565b90506000600b60008381526020019081526020016000209050806040518060a0016040529081600082015481526020016001820160009054906101000a900473ffffffffffffffffffffffffffffffffffffffff1673ffffffffffffffffffffffffffffffffffffffff1673ffffffffffffffffffffffffffffffffffffffff1681526020016002820160009054906101000a900473ffffffffffffffffffffffffffffffffffffffff1673ffffffffffffffffffffffffffffffffffffffff1673ffffffffffffffffffffffffffffffffffffffff168152602001600382015481526020016004820160009054906101000a900460ff1615151515815250508486815181106114a4576114a361395e565b5b60200260200101819052506001856114bc919061392a565b945050505b80806114cc9061398d565b915050611305565b508094505050505090565b60606114ea82611d4c565b600060066000848152602001908152602001600020805461150a9061350a565b80601f01602080910402602001604051908101604052809291908181526020018280546115369061350a565b80156115835780601f1061155857610100808354040283529160200191611583565b820191906000526020600020905b81548152906001019060200180831161156657829003601f168201915b505050505090506000611594612636565b905060008151036115a95781925050506115ec565b6000825111156115de5780826040516020016115c6929190613a11565b604051602081830303815290604052925050506115ec565b6115e78461264d565b925050505b919050565b606060006115ff6007611e58565b905060008060005b838110156116a7573373ffffffffffffffffffffffffffffffffffffffff16600b6000600184611637919061392a565b815260200190815260200160002060010160009054906101000a900473ffffffffffffffffffffffffffffffffffffffff1673ffffffffffffffffffffffffffffffffffffffff160361169457600183611691919061392a565b92505b808061169f9061398d565b915050611607565b5060008267ffffffffffffffff8111156116c4576116c3612f34565b5b6040519080825280602002602001820160405280156116fd57816020015b6116ea612b37565b8152602001906001900390816116e25790505b50905060005b848110156118d2573373ffffffffffffffffffffffffffffffffffffffff16600b6000600184611733919061392a565b815260200190815260200160002060010160009054906101000a900473ffffffffffffffffffffffffffffffffffffffff1673ffffffffffffffffffffffffffffffffffffffff16036118bf57600060018261178f919061392a565b90506000600b60008381526020019081526020016000209050806040518060a0016040529081600082015481526020016001820160009054906101000a900473ffffffffffffffffffffffffffffffffffffffff1673ffffffffffffffffffffffffffffffffffffffff1673ffffffffffffffffffffffffffffffffffffffff1681526020016002820160009054906101000a900473ffffffffffffffffffffffffffffffffffffffff1673ffffffffffffffffffffffffffffffffffffffff1673ffffffffffffffffffffffffffffffffffffffff168152602001600382015481526020016004820160009054906101000a900460ff1615151515815250508486815181106118a2576118a161395e565b5b60200260200101819052506001856118ba919061392a565b945050505b80806118ca9061398d565b915050611703565b508094505050505090565b6000600560008473ffffffffffffffffffffffffffffffffffffffff1673ffffffffffffffffffffffffffffffffffffffff16815260200190815260200160002060008373ffffffffffffffffffffffffffffffffffffffff1673ffffffffffffffffffffffffffffffffffffffff16815260200190815260200160002060009054906101000a900460ff16905092915050565b60007f80ac58cd000000000000000000000000000000000000000000000000000000007bffffffffffffffffffffffffffffffffffffffffffffffffffffffff1916827bffffffffffffffffffffffffffffffffffffffffffffffffffffffff19161480611a3c57507f5b5e139f000000000000000000000000000000000000000000000000000000007bffffffffffffffffffffffffffffffffffffffffffffffffffffffff1916827bffffffffffffffffffffffffffffffffffffffffffffffffffffffff1916145b80611a4c5750611a4b826126b5565b5b9050919050565b8273ffffffffffffffffffffffffffffffffffffffff16611a7382610d02565b73ffffffffffffffffffffffffffffffffffffffff1614611ac9576040517f08c379a0000000000000000000000000000000000000000000000000000000008152600401611ac090613aa7565b60405180910390fd5b600073ffffffffffffffffffffffffffffffffffffffff168273ffffffffffffffffffffffffffffffffffffffff1603611b38576040517f08c379a0000000000000000000000000000000000000000000000000000000008152600401611b2f90613b39565b60405180910390fd5b611b45838383600161271f565b8273ffffffffffffffffffffffffffffffffffffffff16611b6582610d02565b73ffffffffffffffffffffffffffffffffffffffff1614611bbb576040517f08c379a0000000000000000000000000000000000000000000000000000000008152600401611bb290613aa7565b60405180910390fd5b6004600082815260200190815260200160002060006101000a81549073ffffffffffffffffffffffffffffffffffffffff02191690556001600360008573ffffffffffffffffffffffffffffffffffffffff1673ffffffffffffffffffffffffffffffffffffffff168152602001908152602001600020600082825403925050819055506001600360008473ffffffffffffffffffffffffffffffffffffffff1673ffffffffffffffffffffffffffffffffffffffff16815260200190815260200160002060008282540192505081905550816002600083815260200190815260200160002060006101000a81548173ffffffffffffffffffffffffffffffffffffffff021916908373ffffffffffffffffffffffffffffffffffffffff160217905550808273ffffffffffffffffffffffffffffffffffffffff168473ffffffffffffffffffffffffffffffffffffffff167fddf252ad1be2c89b69c2b068fc378daa952ba7f163c4a11628f55a4df523b3ef60405160405180910390a4611d478383836001612725565b505050565b611d558161272b565b611d94576040517f08c379a0000000000000000000000000000000000000000000000000000000008152600401611d8b90613815565b60405180910390fd5b50565b600033905090565b816004600083815260200190815260200160002060006101000a81548173ffffffffffffffffffffffffffffffffffffffff021916908373ffffffffffffffffffffffffffffffffffffffff160217905550808273ffffffffffffffffffffffffffffffffffffffff16611e1283610d02565b73ffffffffffffffffffffffffffffffffffffffff167f8c5be1e5ebec7d5bd14f71427d1e84f3dd0314c0f7b2291e5b200ac8c7c3b92560405160405180910390a45050565b600081600001549050919050565b60008160000154905060008111611eb2576040517f08c379a0000000000000000000000000000000000000000000000000000000008152600401611ea990613ba5565b60405180910390fd5b6001810382600001819055505050565b600080611ece83610d02565b90508073ffffffffffffffffffffffffffffffffffffffff168473ffffffffffffffffffffffffffffffffffffffff161480611f105750611f0f81856118dd565b5b80611f4e57508373ffffffffffffffffffffffffffffffffffffffff16611f36846108e1565b73ffffffffffffffffffffffffffffffffffffffff16145b91505092915050565b60006002600083815260200190815260200160002060009054906101000a900473ffffffffffffffffffffffffffffffffffffffff169050919050565b6001816000016000828254019250508190555050565b600073ffffffffffffffffffffffffffffffffffffffff168273ffffffffffffffffffffffffffffffffffffffff1603612019576040517f08c379a000000000000000000000000000000000000000000000000000000000815260040161201090613c11565b60405180910390fd5b6120228161272b565b15612062576040517f08c379a000000000000000000000000000000000000000000000000000000000815260040161205990613c7d565b60405180910390fd5b61207060008383600161271f565b6120798161272b565b156120b9576040517f08c379a00000000000000000000000000000000000000000000000000000000081526004016120b090613c7d565b60405180910390fd5b6001600360008473ffffffffffffffffffffffffffffffffffffffff1673ffffffffffffffffffffffffffffffffffffffff16815260200190815260200160002060008282540192505081905550816002600083815260200190815260200160002060006101000a81548173ffffffffffffffffffffffffffffffffffffffff021916908373ffffffffffffffffffffffffffffffffffffffff160217905550808273ffffffffffffffffffffffffffffffffffffffff16600073ffffffffffffffffffffffffffffffffffffffff167fddf252ad1be2c89b69c2b068fc378daa952ba7f163c4a11628f55a4df523b3ef60405160405180910390a46121c3600083836001612725565b5050565b6121d08261272b565b61220f576040517f08c379a000000000000000000000000000000000000000000000000000000000815260040161220690613d0f565b60405180910390fd5b8060066000848152602001908152602001600020908161222f9190613edb565b507ff8e1a15aba9398e019f0b49df1a4fde98ee17ae345cb5f6b5e2c27f5033e8ce78260405161225f9190612e8f565b60405180910390a15050565b600081036122ae576040517f08c379a00000000000000000000000000000000000000000000000000000000081526004016122a590613ff9565b60405180910390fd5b600a5434146122f2576040517f08c379a00000000000000000000000000000000000000000000000000000000081526004016122e990613717565b60405180910390fd5b6040518060a001604052808381526020013373ffffffffffffffffffffffffffffffffffffffff1681526020013073ffffffffffffffffffffffffffffffffffffffff16815260200182815260200160001515815250600b60008481526020019081526020016000206000820151816000015560208201518160010160006101000a81548173ffffffffffffffffffffffffffffffffffffffff021916908373ffffffffffffffffffffffffffffffffffffffff16021790555060408201518160020160006101000a81548173ffffffffffffffffffffffffffffffffffffffff021916908373ffffffffffffffffffffffffffffffffffffffff1602179055506060820151816003015560808201518160040160006101000a81548160ff02191690831515021790555090505061242b333084611a53565b817fdebdb32cb5230ab727c9c361b16fdb2015df225c10e6a3e7f60ecd5dc5be451633308460006040516124629493929190614019565b60405180910390a25050565b8173ffffffffffffffffffffffffffffffffffffffff168373ffffffffffffffffffffffffffffffffffffffff16036124dc576040517f08c379a00000000000000000000000000000000000000000000000000000000081526004016124d3906140aa565b60405180910390fd5b80600560008573ffffffffffffffffffffffffffffffffffffffff1673ffffffffffffffffffffffffffffffffffffffff16815260200190815260200160002060008473ffffffffffffffffffffffffffffffffffffffff1673ffffffffffffffffffffffffffffffffffffffff16815260200190815260200160002060006101000a81548160ff0219169083151502179055508173ffffffffffffffffffffffffffffffffffffffff168373ffffffffffffffffffffffffffffffffffffffff167f17307eab39ab6107e8899845ad3d59bd9653f200f220920489ca2b5937696c31836040516125cd9190612c48565b60405180910390a3505050565b6125e5848484611a53565b6125f18484848461276c565b612630576040517f08c379a00000000000000000000000000000000000000000000000000000000081526004016126279061413c565b60405180910390fd5b50505050565b606060405180602001604052806000815250905090565b606061265882611d4c565b6000612662612636565b9050600081511161268257604051806020016040528060008152506126ad565b8061268c846128f3565b60405160200161269d929190613a11565b6040516020818303038152906040525b915050919050565b60007f01ffc9a7000000000000000000000000000000000000000000000000000000007bffffffffffffffffffffffffffffffffffffffffffffffffffffffff1916827bffffffffffffffffffffffffffffffffffffffffffffffffffffffff1916149050919050565b50505050565b50505050565b60008073ffffffffffffffffffffffffffffffffffffffff1661274d83611f57565b73ffffffffffffffffffffffffffffffffffffffff1614159050919050565b600061278d8473ffffffffffffffffffffffffffffffffffffffff166129c1565b156128e6578373ffffffffffffffffffffffffffffffffffffffff1663150b7a026127b6611d97565b8786866040518563ffffffff1660e01b81526004016127d894939291906141b1565b6020604051808303816000875af192505050801561281457506040513d601f19601f820116820180604052508101906128119190614212565b60015b612896573d8060008114612844576040519150601f19603f3d011682016040523d82523d6000602084013e612849565b606091505b50600081510361288e576040517f08c379a00000000000000000000000000000000000000000000000000000000081526004016128859061413c565b60405180910390fd5b805181602001fd5b63150b7a0260e01b7bffffffffffffffffffffffffffffffffffffffffffffffffffffffff1916817bffffffffffffffffffffffffffffffffffffffffffffffffffffffff1916149150506128eb565b600190505b949350505050565b606060006001612902846129e4565b01905060008167ffffffffffffffff81111561292157612920612f34565b5b6040519080825280601f01601f1916602001820160405280156129535781602001600182028036833780820191505090505b509050600082602001820190505b6001156129b6578080600190039150507f3031323334353637383961626364656600000000000000000000000000000000600a86061a8153600a85816129aa576129a961423f565b5b04945060008503612961575b819350505050919050565b6000808273ffffffffffffffffffffffffffffffffffffffff163b119050919050565b600080600090507a184f03e93ff9f4daa797ed6e38ed64bf6a1f0100000000000000008310612a42577a184f03e93ff9f4daa797ed6e38ed64bf6a1f0100000000000000008381612a3857612a3761423f565b5b0492506040810190505b6d04ee2d6d415b85acef81000000008310612a7f576d04ee2d6d415b85acef81000000008381612a7557612a7461423f565b5b0492506020810190505b662386f26fc100008310612aae57662386f26fc100008381612aa457612aa361423f565b5b0492506010810190505b6305f5e1008310612ad7576305f5e1008381612acd57612acc61423f565b5b0492506008810190505b6127108310612afc576127108381612af257612af161423f565b5b0492506004810190505b60648310612b1f5760648381612b1557612b1461423f565b5b0492506002810190505b600a8310612b2e576001810190505b80915050919050565b6040518060a0016040528060008152602001600073ffffffffffffffffffffffffffffffffffffffff168152602001600073ffffffffffffffffffffffffffffffffffffffff168152602001600081526020016000151581525090565b6000604051905090565b600080fd5b600080fd5b60007fffffffff0000000000000000000000000000000000000000000000000000000082169050919050565b612bdd81612ba8565b8114612be857600080fd5b50565b600081359050612bfa81612bd4565b92915050565b600060208284031215612c1657612c15612b9e565b5b6000612c2484828501612beb565b91505092915050565b60008115159050919050565b612c4281612c2d565b82525050565b6000602082019050612c5d6000830184612c39565b92915050565b6000819050919050565b612c7681612c63565b8114612c8157600080fd5b50565b600081359050612c9381612c6d565b92915050565b600060208284031215612caf57612cae612b9e565b5b6000612cbd84828501612c84565b91505092915050565b600081519050919050565b600082825260208201905092915050565b60005b83811015612d00578082015181840152602081019050612ce5565b60008484015250505050565b6000601f19601f8301169050919050565b6000612d2882612cc6565b612d328185612cd1565b9350612d42818560208601612ce2565b612d4b81612d0c565b840191505092915050565b60006020820190508181036000830152612d708184612d1d565b905092915050565b600073ffffffffffffffffffffffffffffffffffffffff82169050919050565b6000612da382612d78565b9050919050565b612db381612d98565b82525050565b6000602082019050612dce6000830184612daa565b92915050565b612ddd81612d98565b8114612de857600080fd5b50565b600081359050612dfa81612dd4565b92915050565b60008060408385031215612e1757612e16612b9e565b5b6000612e2585828601612deb565b9250506020612e3685828601612c84565b9150509250929050565b60008060408385031215612e5757612e56612b9e565b5b6000612e6585828601612c84565b9250506020612e7685828601612c84565b9150509250929050565b612e8981612c63565b82525050565b6000602082019050612ea46000830184612e80565b92915050565b600080600060608486031215612ec357612ec2612b9e565b5b6000612ed186828701612deb565b9350506020612ee286828701612deb565b9250506040612ef386828701612c84565b9150509250925092565b600060208284031215612f1357612f12612b9e565b5b6000612f2184828501612deb565b91505092915050565b600080fd5b600080fd5b7f4e487b7100000000000000000000000000000000000000000000000000000000600052604160045260246000fd5b612f6c82612d0c565b810181811067ffffffffffffffff82111715612f8b57612f8a612f34565b5b80604052505050565b6000612f9e612b94565b9050612faa8282612f63565b919050565b600067ffffffffffffffff821115612fca57612fc9612f34565b5b612fd382612d0c565b9050602081019050919050565b82818337600083830152505050565b6000613002612ffd84612faf565b612f94565b90508281526020810184848401111561301e5761301d612f2f565b5b613029848285612fe0565b509392505050565b600082601f83011261304657613045612f2a565b5b8135613056848260208601612fef565b91505092915050565b6000806040838503121561307657613075612b9e565b5b600083013567ffffffffffffffff81111561309457613093612ba3565b5b6130a085828601613031565b92505060206130b185828601612c84565b9150509250929050565b600081519050919050565b600082825260208201905092915050565b6000819050602082019050919050565b6130f081612c63565b82525050565b600061310182612d78565b9050919050565b613111816130f6565b82525050565b61312081612c2d565b82525050565b60a08201600082015161313c60008501826130e7565b50602082015161314f6020850182613108565b5060408201516131626040850182613108565b50606082015161317560608501826130e7565b5060808201516131886080850182613117565b50505050565b600061319a8383613126565b60a08301905092915050565b6000602082019050919050565b60006131be826130bb565b6131c881856130c6565b93506131d3836130d7565b8060005b838110156132045781516131eb888261318e565b97506131f6836131a6565b9250506001810190506131d7565b5085935050505092915050565b6000602082019050818103600083015261322b81846131b3565b905092915050565b61323c81612c2d565b811461324757600080fd5b50565b60008135905061325981613233565b92915050565b6000806040838503121561327657613275612b9e565b5b600061328485828601612deb565b92505060206132958582860161324a565b9150509250929050565b600067ffffffffffffffff8211156132ba576132b9612f34565b5b6132c382612d0c565b9050602081019050919050565b60006132e36132de8461329f565b612f94565b9050828152602081018484840111156132ff576132fe612f2f565b5b61330a848285612fe0565b509392505050565b600082601f83011261332757613326612f2a565b5b81356133378482602086016132d0565b91505092915050565b6000806000806080858703121561335a57613359612b9e565b5b600061336887828801612deb565b945050602061337987828801612deb565b935050604061338a87828801612c84565b925050606085013567ffffffffffffffff8111156133ab576133aa612ba3565b5b6133b787828801613312565b91505092959194509250565b600080604083850312156133da576133d9612b9e565b5b60006133e885828601612deb565b92505060206133f985828601612deb565b9150509250929050565b7f796f75206172206e6f74206f776e657220000000000000000000000000000000600082015250565b6000613439601183612cd1565b915061344482613403565b602082019050919050565b600060208201905081810360008301526134688161342c565b9050919050565b7f50726963654d757374426541736b696e67507269636500000000000000000000600082015250565b60006134a5601683612cd1565b91506134b08261346f565b602082019050919050565b600060208201905081810360008301526134d481613498565b9050919050565b7f4e487b7100000000000000000000000000000000000000000000000000000000600052602260045260246000fd5b6000600282049050600182168061352257607f821691505b602082108103613535576135346134db565b5b50919050565b7f4552433732313a20617070726f76616c20746f2063757272656e74206f776e6560008201527f7200000000000000000000000000000000000000000000000000000000000000602082015250565b6000613597602183612cd1565b91506135a28261353b565b604082019050919050565b600060208201905081810360008301526135c68161358a565b9050919050565b7f4552433732313a20617070726f76652063616c6c6572206973206e6f7420746f60008201527f6b656e206f776e6572206f7220617070726f76656420666f7220616c6c000000602082015250565b6000613629603d83612cd1565b9150613634826135cd565b604082019050919050565b600060208201905081810360008301526136588161361c565b9050919050565b7f596f754172654e6f744f776e6572000000000000000000000000000000000000600082015250565b6000613695600e83612cd1565b91506136a08261365f565b602082019050919050565b600060208201905081810360008301526136c481613688565b9050919050565b7f50726963654d75737442654571546f4c69737450726963650000000000000000600082015250565b6000613701601883612cd1565b915061370c826136cb565b602082019050919050565b60006020820190508181036000830152613730816136f4565b9050919050565b7f4552433732313a2063616c6c6572206973206e6f7420746f6b656e206f776e6560008201527f72206f7220617070726f76656400000000000000000000000000000000000000602082015250565b6000613793602d83612cd1565b915061379e82613737565b604082019050919050565b600060208201905081810360008301526137c281613786565b9050919050565b7f4552433732313a20696e76616c696420746f6b656e2049440000000000000000600082015250565b60006137ff601883612cd1565b915061380a826137c9565b602082019050919050565b6000602082019050818103600083015261382e816137f2565b9050919050565b7f4552433732313a2061646472657373207a65726f206973206e6f74206120766160008201527f6c6964206f776e65720000000000000000000000000000000000000000000000602082015250565b6000613891602983612cd1565b915061389c82613835565b604082019050919050565b600060208201905081810360008301526138c081613884565b9050919050565b7f4e487b7100000000000000000000000000000000000000000000000000000000600052601160045260246000fd5b600061390182612c63565b915061390c83612c63565b9250828203905081811115613924576139236138c7565b5b92915050565b600061393582612c63565b915061394083612c63565b9250828201905080821115613958576139576138c7565b5b92915050565b7f4e487b7100000000000000000000000000000000000000000000000000000000600052603260045260246000fd5b600061399882612c63565b91507fffffffffffffffffffffffffffffffffffffffffffffffffffffffffffffffff82036139ca576139c96138c7565b5b600182019050919050565b600081905092915050565b60006139eb82612cc6565b6139f581856139d5565b9350613a05818560208601612ce2565b80840191505092915050565b6000613a1d82856139e0565b9150613a2982846139e0565b91508190509392505050565b7f4552433732313a207472616e736665722066726f6d20696e636f72726563742060008201527f6f776e6572000000000000000000000000000000000000000000000000000000602082015250565b6000613a91602583612cd1565b9150613a9c82613a35565b604082019050919050565b60006020820190508181036000830152613ac081613a84565b9050919050565b7f4552433732313a207472616e7366657220746f20746865207a65726f2061646460008201527f7265737300000000000000000000000000000000000000000000000000000000602082015250565b6000613b23602483612cd1565b9150613b2e82613ac7565b604082019050919050565b60006020820190508181036000830152613b5281613b16565b9050919050565b7f436f756e7465723a2064656372656d656e74206f766572666c6f770000000000600082015250565b6000613b8f601b83612cd1565b9150613b9a82613b59565b602082019050919050565b60006020820190508181036000830152613bbe81613b82565b9050919050565b7f4552433732313a206d696e7420746f20746865207a65726f2061646472657373600082015250565b6000613bfb602083612cd1565b9150613c0682613bc5565b602082019050919050565b60006020820190508181036000830152613c2a81613bee565b9050919050565b7f4552433732313a20746f6b656e20616c7265616479206d696e74656400000000600082015250565b6000613c67601c83612cd1565b9150613c7282613c31565b602082019050919050565b60006020820190508181036000830152613c9681613c5a565b9050919050565b7f45524337323155524953746f726167653a2055524920736574206f66206e6f6e60008201527f6578697374656e7420746f6b656e000000000000000000000000000000000000602082015250565b6000613cf9602e83612cd1565b9150613d0482613c9d565b604082019050919050565b60006020820190508181036000830152613d2881613cec565b9050919050565b60008190508160005260206000209050919050565b60006020601f8301049050919050565b600082821b905092915050565b600060088302613d917fffffffffffffffffffffffffffffffffffffffffffffffffffffffffffffffff82613d54565b613d9b8683613d54565b95508019841693508086168417925050509392505050565b6000819050919050565b6000613dd8613dd3613dce84612c63565b613db3565b612c63565b9050919050565b6000819050919050565b613df283613dbd565b613e06613dfe82613ddf565b848454613d61565b825550505050565b600090565b613e1b613e0e565b613e26818484613de9565b505050565b5b81811015613e4a57613e3f600082613e13565b600181019050613e2c565b5050565b601f821115613e8f57613e6081613d2f565b613e6984613d44565b81016020851015613e78578190505b613e8c613e8485613d44565b830182613e2b565b50505b505050565b600082821c905092915050565b6000613eb260001984600802613e94565b1980831691505092915050565b6000613ecb8383613ea1565b9150826002028217905092915050565b613ee482612cc6565b67ffffffffffffffff811115613efd57613efc612f34565b5b613f07825461350a565b613f12828285613e4e565b600060209050601f831160018114613f455760008415613f33578287015190505b613f3d8582613ebf565b865550613fa5565b601f198416613f5386613d2f565b60005b82811015613f7b57848901518255600182019150602085019450602081019050613f56565b86831015613f985784890151613f94601f891682613ea1565b8355505b6001600288020188555050505b505050505050565b7f50726963654d7573744265477265617465725468616e5a65726f000000000000600082015250565b6000613fe3601a83612cd1565b9150613fee82613fad565b602082019050919050565b6000602082019050818103600083015261401281613fd6565b9050919050565b600060808201905061402e6000830187612daa565b61403b6020830186612daa565b6140486040830185612e80565b6140556060830184612c39565b95945050505050565b7f4552433732313a20617070726f766520746f2063616c6c657200000000000000600082015250565b6000614094601983612cd1565b915061409f8261405e565b602082019050919050565b600060208201905081810360008301526140c381614087565b9050919050565b7f4552433732313a207472616e7366657220746f206e6f6e20455243373231526560008201527f63656976657220696d706c656d656e7465720000000000000000000000000000602082015250565b6000614126603283612cd1565b9150614131826140ca565b604082019050919050565b6000602082019050818103600083015261415581614119565b9050919050565b600081519050919050565b600082825260208201905092915050565b60006141838261415c565b61418d8185614167565b935061419d818560208601612ce2565b6141a681612d0c565b840191505092915050565b60006080820190506141c66000830187612daa565b6141d36020830186612daa565b6141e06040830185612e80565b81810360608301526141f28184614178565b905095945050505050565b60008151905061420c81612bd4565b92915050565b60006020828403121561422857614227612b9e565b5b6000614236848285016141fd565b91505092915050565b7f4e487b7100000000000000000000000000000000000000000000000000000000600052601260045260246000fdfea2646970667358221220f0c6a31b0fb6fb090d536555f8ec016acbd809299657bce766996b0ecbbc29d964736f6c63430008140033",
  "linkReferences": {},
  "deployedLinkReferences": {}
}