{
  "_format": "hh-sol-artifact-1",
  "contractName": "NFTMarketPlace",
  "sourceName": "contracts/NftMarketPlace.sol",
  "abi": [
    {
      "inputs": [],
      "stateMutability": "nonpayable",
      "type": "constructor"
    },
    {
      "anonymous": false,
      "inputs": [
        {
          "indexed": true,
          "internalType": "address",
          "name": "owner",
          "type": "address"
        },
        {
          "indexed": true,
          "internalType": "address",
          "name": "approved",
          "type": "address"
        },
        {
          "indexed": true,
          "internalType": "uint256",
          "name": "tokenId",
          "type": "uint256"
        }
      ],
      "name": "Approval",
      "type": "event"
    },
    {
      "anonymous": false,
      "inputs": [
        {
          "indexed": true,
          "internalType": "address",
          "name": "owner",
          "type": "address"
        },
        {
          "indexed": true,
          "internalType": "address",
          "name": "operator",
          "type": "address"
        },
        {
          "indexed": false,
          "internalType": "bool",
          "name": "approved",
          "type": "bool"
        }
      ],
      "name": "ApprovalForAll",
      "type": "event"
    },
    {
      "anonymous": false,
      "inputs": [
        {
          "indexed": false,
          "internalType": "uint256",
          "name": "_fromTokenId",
          "type": "uint256"
        },
        {
          "indexed": false,
          "internalType": "uint256",
          "name": "_toTokenId",
          "type": "uint256"
        }
      ],
      "name": "BatchMetadataUpdate",
      "type": "event"
    },
    {
      "anonymous": false,
      "inputs": [
        {
          "indexed": false,
          "internalType": "uint256",
          "name": "_tokenId",
          "type": "uint256"
        }
      ],
      "name": "MetadataUpdate",
      "type": "event"
    },
    {
      "anonymous": false,
      "inputs": [
        {
          "indexed": true,
          "internalType": "address",
          "name": "from",
          "type": "address"
        },
        {
          "indexed": true,
          "internalType": "address",
          "name": "to",
          "type": "address"
        },
        {
          "indexed": true,
          "internalType": "uint256",
          "name": "tokenId",
          "type": "uint256"
        }
      ],
      "name": "Transfer",
      "type": "event"
    },
    {
      "anonymous": false,
      "inputs": [
        {
          "indexed": true,
          "internalType": "uint256",
          "name": "tokenId",
          "type": "uint256"
        },
        {
          "indexed": false,
          "internalType": "address",
          "name": "seller",
          "type": "address"
        },
        {
          "indexed": false,
          "internalType": "address",
          "name": "owner",
          "type": "address"
        },
        {
          "indexed": false,
          "internalType": "uint256",
          "name": "price",
          "type": "uint256"
        },
        {
          "indexed": false,
          "internalType": "bool",
          "name": "sold",
          "type": "bool"
        }
      ],
      "name": "idMarketItemCreated",
      "type": "event"
    },
    {
      "inputs": [
        {
          "internalType": "uint256",
          "name": "tokenId",
          "type": "uint256"
        }
      ],
      "name": "CreateMarketsale",
      "outputs": [],
      "stateMutability": "payable",
      "type": "function"
    },
    {
      "inputs": [
        {
          "internalType": "string",
          "name": "tokenURI",
          "type": "string"
        },
        {
          "internalType": "uint256",
          "name": "price",
          "type": "uint256"
        }
      ],
      "name": "CreateToken",
      "outputs": [
        {
          "internalType": "uint256",
          "name": "",
          "type": "uint256"
        }
      ],
      "stateMutability": "payable",
      "type": "function"
    },
    {
      "inputs": [],
      "name": "ListingPrice",
      "outputs": [
        {
          "internalType": "uint256",
          "name": "",
          "type": "uint256"
        }
      ],
      "stateMutability": "view",
      "type": "function"
    },
    {
      "inputs": [
        {
          "internalType": "uint256",
          "name": "tokenId",
          "type": "uint256"
        },
        {
          "internalType": "uint256",
          "name": "price",
          "type": "uint256"
        }
      ],
      "name": "ReSellToken",
      "outputs": [],
      "stateMutability": "payable",
      "type": "function"
    },
    {
      "inputs": [
        {
          "internalType": "uint256",
          "name": "_ListingPrice",
          "type": "uint256"
        }
      ],
      "name": "UpdateListingprice",
      "outputs": [],
      "stateMutability": "payable",
      "type": "function"
    },
    {
      "inputs": [
        {
          "internalType": "address",
          "name": "to",
          "type": "address"
        },
        {
          "internalType": "uint256",
          "name": "tokenId",
          "type": "uint256"
        }
      ],
      "name": "approve",
      "outputs": [],
      "stateMutability": "nonpayable",
      "type": "function"
    },
    {
      "inputs": [
        {
          "internalType": "address",
          "name": "owner",
          "type": "address"
        }
      ],
      "name": "balanceOf",
      "outputs": [
        {
          "internalType": "uint256",
          "name": "",
          "type": "uint256"
        }
      ],
      "stateMutability": "view",
      "type": "function"
    },
    {
      "inputs": [],
      "name": "fetchItemListed",
      "outputs": [
        {
          "components": [
            {
              "internalType": "uint256",
              "name": "tokenId",
              "type": "uint256"
            },
            {
              "internalType": "address payable",
              "name": "seller",
              "type": "address"
            },
            {
              "internalType": "address payable",
              "name": "owner",
              "type": "address"
            },
            {
              "internalType": "uint256",
              "name": "price",
              "type": "uint256"
            },
            {
              "internalType": "bool",
              "name": "sold",
              "type": "bool"
            }
          ],
          "internalType": "struct NFTMarketPlace.MarketItem[]",
          "name": "",
          "type": "tuple[]"
        }
      ],
      "stateMutability": "view",
      "type": "function"
    },
    {
      "inputs": [],
      "name": "fetchMyNFT",
      "outputs": [
        {
          "components": [
            {
              "internalType": "uint256",
              "name": "tokenId",
              "type": "uint256"
            },
            {
              "internalType": "address payable",
              "name": "seller",
              "type": "address"
            },
            {
              "internalType": "address payable",
              "name": "owner",
              "type": "address"
            },
            {
              "internalType": "uint256",
              "name": "price",
              "type": "uint256"
            },
            {
              "internalType": "bool",
              "name": "sold",
              "type": "bool"
            }
          ],
          "internalType": "struct NFTMarketPlace.MarketItem[]",
          "name": "",
          "type": "tuple[]"
        }
      ],
      "stateMutability": "view",
      "type": "function"
    },
    {
      "inputs": [],
      "name": "fetchmarketitem",
      "outputs": [
        {
          "components": [
            {
              "internalType": "uint256",
              "name": "tokenId",
              "type": "uint256"
            },
            {
              "internalType": "address payable",
              "name": "seller",
              "type": "address"
            },
            {
              "internalType": "address payable",
              "name": "owner",
              "type": "address"
            },
            {
              "internalType": "uint256",
              "name": "price",
              "type": "uint256"
            },
            {
              "internalType": "bool",
              "name": "sold",
              "type": "bool"
            }
          ],
          "internalType": "struct NFTMarketPlace.MarketItem[]",
          "name": "",
          "type": "tuple[]"
        }
      ],
      "stateMutability": "view",
      "type": "function"
    },
    {
      "inputs": [
        {
          "internalType": "uint256",
          "name": "tokenId",
          "type": "uint256"
        }
      ],
      "name": "getApproved",
      "outputs": [
        {
          "internalType": "address",
          "name": "",
          "type": "address"
        }
      ],
      "stateMutability": "view",
      "type": "function"
    },
    {
      "inputs": [],
      "name": "getListingPrice",
      "outputs": [
        {
          "internalType": "uint256",
          "name": "",
          "type": "uint256"
        }
      ],
      "stateMutability": "view",
      "type": "function"
    },
    {
      "inputs": [
        {
          "internalType": "address",
          "name": "owner",
          "type": "address"
        },
        {
          "internalType": "address",
          "name": "operator",
          "type": "address"
        }
      ],
      "name": "isApprovedForAll",
      "outputs": [
        {
          "internalType": "bool",
          "name": "",
          "type": "bool"
        }
      ],
      "stateMutability": "view",
      "type": "function"
    },
    {
      "inputs": [],
      "name": "name",
      "outputs": [
        {
          "internalType": "string",
          "name": "",
          "type": "string"
        }
      ],
      "stateMutability": "view",
      "type": "function"
    },
    {
      "inputs": [
        {
          "internalType": "uint256",
          "name": "tokenId",
          "type": "uint256"
        }
      ],
      "name": "ownerOf",
      "outputs": [
        {
          "internalType": "address",
          "name": "",
          "type": "address"
        }
      ],
      "stateMutability": "view",
      "type": "function"
    },
    {
      "inputs": [
        {
          "internalType": "address",
          "name": "from",
          "type": "address"
        },
        {
          "internalType": "address",
          "name": "to",
          "type": "address"
        },
        {
          "internalType": "uint256",
          "name": "tokenId",
          "type": "uint256"
        }
      ],
      "name": "safeTransferFrom",
      "outputs": [],
      "stateMutability": "nonpayable",
      "type": "function"
    },
    {
      "inputs": [
        {
          "internalType": "address",
          "name": "from",
          "type": "address"
        },
        {
          "internalType": "address",
          "name": "to",
          "type": "address"
        },
        {
          "internalType": "uint256",
          "name": "tokenId",
          "type": "uint256"
        },
        {
          "internalType": "bytes",
          "name": "data",
          "type": "bytes"
        }
      ],
      "name": "safeTransferFrom",
      "outputs": [],
      "stateMutability": "nonpayable",
      "type": "function"
    },
    {
      "inputs": [
        {
          "internalType": "address",
          "name": "operator",
          "type": "address"
        },
        {
          "internalType": "bool",
          "name": "approved",
          "type": "bool"
        }
      ],
      "name": "setApprovalForAll",
      "outputs": [],
      "stateMutability": "nonpayable",
      "type": "function"
    },
    {
      "inputs": [
        {
          "internalType": "bytes4",
          "name": "interfaceId",
          "type": "bytes4"
        }
      ],
      "name": "supportsInterface",
      "outputs": [
        {
          "internalType": "bool",
          "name": "",
          "type": "bool"
        }
      ],
      "stateMutability": "view",
      "type": "function"
    },
    {
      "inputs": [],
      "name": "symbol",
      "outputs": [
        {
          "internalType": "string",
          "name": "",
          "type": "string"
        }
      ],
      "stateMutability": "view",
      "type": "function"
    },
    {
      "inputs": [
        {
          "internalType": "uint256",
          "name": "tokenId",
          "type": "uint256"
        }
      ],
      "name": "tokenURI",
      "outputs": [
        {
          "internalType": "string",
          "name": "",
          "type": "string"
        }
      ],
      "stateMutability": "view",
      "type": "function"
    },
    {
      "inputs": [
        {
          "internalType": "address",
          "name": "from",
          "type": "address"
        },
        {
          "internalType": "address",
          "name": "to",
          "type": "address"
        },
        {
          "internalType": "uint256",
          "name": "tokenId",
          "type": "uint256"
        }
      ],
      "name": "transferFrom",
      "outputs": [],
      "stateMutability": "nonpayable",
      "type": "function"
    }
  ],
  "bytecode": "0x60806040526658d15e17628000600a5534801561001b57600080fd5b506040518060400160405280601381526020017f4e4654204d657461766572736520546f6b656e000000000000000000000000008152506040518060400160405280600581526020017f4e46544d5400000000000000000000000000000000000000000000000000000081525081600090816100979190610340565b5080600190816100a79190610340565b50505033600960006101000a81548173ffffffffffffffffffffffffffffffffffffffff021916908373ffffffffffffffffffffffffffffffffffffffff160217905550610412565b600081519050919050565b7f4e487b7100000000000000000000000000000000000000000000000000000000600052604160045260246000fd5b7f4e487b7100000000000000000000000000000000000000000000000000000000600052602260045260246000fd5b6000600282049050600182168061017157607f821691505b6020821081036101845761018361012a565b5b50919050565b60008190508160005260206000209050919050565b60006020601f8301049050919050565b600082821b905092915050565b6000600883026101ec7fffffffffffffffffffffffffffffffffffffffffffffffffffffffffffffffff826101af565b6101f686836101af565b95508019841693508086168417925050509392505050565b6000819050919050565b6000819050919050565b600061023d6102386102338461020e565b610218565b61020e565b9050919050565b6000819050919050565b61025783610222565b61026b61026382610244565b8484546101bc565b825550505050565b600090565b610280610273565b61028b81848461024e565b505050565b5b818110156102af576102a4600082610278565b600181019050610291565b5050565b601f8211156102f4576102c58161018a565b6102ce8461019f565b810160208510156102dd578190505b6102f16102e98561019f565b830182610290565b50505b505050565b600082821c905092915050565b6000610317600019846008026102f9565b1980831691505092915050565b60006103308383610306565b9150826002028217905092915050565b610349826100f0565b67ffffffffffffffff811115610362576103616100fb565b5b61036c8254610159565b6103778282856102b3565b600060209050601f8311600181146103aa5760008415610398578287015190505b6103a28582610324565b86555061040a565b601f1984166103b88661018a565b60005b828110156103e0578489015182556001820191506020850194506020810190506103bb565b868310156103fd57848901516103f9601f891682610306565b8355505b6001600288020188555050505b505050505050565b61423e806104216000396000f3fe6080604052600436106101355760003560e01c80636352211e116100ab578063a22cb4651161006f578063a22cb46514610404578063b88d4fde1461042d578063c18763f714610456578063c87b56dd14610481578063e1791445146104be578063e985e9c5146104e957610135565b80636352211e1461030457806370a08231146103415780638284fe291461037e57806395d89b41146103ae5780639dd7fc43146103d957610135565b8063095ea7b3116100fd578063095ea7b3146102175780630df57bf81461024057806312e855851461025c57806323b872dd1461028757806331bb54f8146102b057806342842e0e146102db57610135565b806301ffc9a71461013a5780630552b48c1461017757806305dd6cb11461019357806306fdde03146101af578063081812fc146101da575b600080fd5b34801561014657600080fd5b50610161600480360381019061015c9190612be2565b610526565b60405161016e9190612c2a565b60405180910390f35b610191600480360381019061018c9190612c7b565b610587565b005b6101ad60048036038101906101a89190612c7b565b610621565b005b3480156101bb57600080fd5b506101c461084f565b6040516101d19190612d38565b60405180910390f35b3480156101e657600080fd5b5061020160048036038101906101fc9190612c7b565b6108e1565b60405161020e9190612d9b565b60405180910390f35b34801561022357600080fd5b5061023e60048036038101906102399190612de2565b610927565b005b61025a60048036038101906102559190612e22565b610a3e565b005b34801561026857600080fd5b50610271610c72565b60405161027e9190612e71565b60405180910390f35b34801561029357600080fd5b506102ae60048036038101906102a99190612e8c565b610c7c565b005b3480156102bc57600080fd5b506102c5610cdc565b6040516102d29190612e71565b60405180910390f35b3480156102e757600080fd5b5061030260048036038101906102fd9190612e8c565b610ce2565b005b34801561031057600080fd5b5061032b60048036038101906103269190612c7b565b610d02565b6040516103389190612d9b565b60405180910390f35b34801561034d57600080fd5b5061036860048036038101906103639190612edf565b610d88565b6040516103759190612e71565b60405180910390f35b61039860048036038101906103939190613041565b610e3f565b6040516103a59190612e71565b60405180910390f35b3480156103ba57600080fd5b506103c3610e81565b6040516103d09190612d38565b60405180910390f35b3480156103e557600080fd5b506103ee610f13565b6040516103fb91906131f3565b60405180910390f35b34801561041057600080fd5b5061042b60048036038101906104269190613241565b611175565b005b34801561043957600080fd5b50610454600480360381019061044f9190613322565b61118b565b005b34801561046257600080fd5b5061046b6111ed565b60405161047891906131f3565b60405180910390f35b34801561048d57600080fd5b506104a860048036038101906104a39190612c7b565b6114cd565b6040516104b59190612d38565b60405180910390f35b3480156104ca57600080fd5b506104d36115df565b6040516104e091906131f3565b60405180910390f35b3480156104f557600080fd5b50610510600480360381019061050b91906133a5565b6118bf565b60405161051d9190612c2a565b60405180910390f35b6000634906490660e01b7bffffffffffffffffffffffffffffffffffffffffffffffffffffffff1916827bffffffffffffffffffffffffffffffffffffffffffffffffffffffff19161480610580575061057f82611953565b5b9050919050565b600960009054906101000a900473ffffffffffffffffffffffffffffffffffffffff1673ffffffffffffffffffffffffffffffffffffffff163373ffffffffffffffffffffffffffffffffffffffff1614610617576040517f08c379a000000000000000000000000000000000000000000000000000000000815260040161060e90613431565b60405180910390fd5b80600a8190555050565b6000600b600083815260200190815260200160002060030154905080341461067e576040517f08c379a00000000000000000000000000000000000000000000000000000000081526004016106759061349d565b60405180910390fd5b33600b600084815260200190815260200160002060020160006101000a81548173ffffffffffffffffffffffffffffffffffffffff021916908373ffffffffffffffffffffffffffffffffffffffff1602179055506001600b600084815260200190815260200160002060040160006101000a81548160ff0219169083151502179055506000600b600084815260200190815260200160002060010160006101000a81548173ffffffffffffffffffffffffffffffffffffffff021916908373ffffffffffffffffffffffffffffffffffffffff160217905550610763303384611a35565b600960009054906101000a900473ffffffffffffffffffffffffffffffffffffffff1673ffffffffffffffffffffffffffffffffffffffff166108fc600a549081150290604051600060405180830381858888f193505050501580156107cd573d6000803e3d6000fd5b50600b600083815260200190815260200160002060010160009054906101000a900473ffffffffffffffffffffffffffffffffffffffff1673ffffffffffffffffffffffffffffffffffffffff166108fc349081150290604051600060405180830381858888f1935050505015801561084a573d6000803e3d6000fd5b505050565b60606000805461085e906134ec565b80601f016020809104026020016040519081016040528092919081815260200182805461088a906134ec565b80156108d75780601f106108ac576101008083540402835291602001916108d7565b820191906000526020600020905b8154815290600101906020018083116108ba57829003601f168201915b5050505050905090565b60006108ec82611d2e565b6004600083815260200190815260200160002060009054906101000a900473ffffffffffffffffffffffffffffffffffffffff169050919050565b600061093282610d02565b90508073ffffffffffffffffffffffffffffffffffffffff168373ffffffffffffffffffffffffffffffffffffffff16036109a2576040517f08c379a00000000000000000000000000000000000000000000000000000000081526004016109999061358f565b60405180910390fd5b8073ffffffffffffffffffffffffffffffffffffffff166109c1611d79565b73ffffffffffffffffffffffffffffffffffffffff1614806109f057506109ef816109ea611d79565b6118bf565b5b610a2f576040517f08c379a0000000000000000000000000000000000000000000000000000000008152600401610a2690613621565b60405180910390fd5b610a398383611d81565b505050565b3373ffffffffffffffffffffffffffffffffffffffff16600b600084815260200190815260200160002060020160009054906101000a900473ffffffffffffffffffffffffffffffffffffffff1673ffffffffffffffffffffffffffffffffffffffff1614610ae2576040517f08c379a0000000000000000000000000000000000000000000000000000000008152600401610ad99061368d565b60405180910390fd5b600a543414610b26576040517f08c379a0000000000000000000000000000000000000000000000000000000008152600401610b1d906136f9565b60405180910390fd5b600b600083815260200190815260200160002060040160009054906101000a900460ff168015610b5f57506000610b5d6008611e3a565b115b15610b6f57610b6e6008611e48565b5b6000600b600084815260200190815260200160002060040160006101000a81548160ff02191690831515021790555080600b60008481526020019081526020016000206003018190555033600b600084815260200190815260200160002060010160006101000a81548173ffffffffffffffffffffffffffffffffffffffff021916908373ffffffffffffffffffffffffffffffffffffffff16021790555030600b600084815260200190815260200160002060020160006101000a81548173ffffffffffffffffffffffffffffffffffffffff021916908373ffffffffffffffffffffffffffffffffffffffff160217905550610c6e333084611a35565b5050565b6000600a54905090565b610c8d610c87611d79565b82611ea4565b610ccc576040517f08c379a0000000000000000000000000000000000000000000000000000000008152600401610cc39061378b565b60405180910390fd5b610cd7838383611a35565b505050565b600a5481565b610cfd8383836040518060200160405280600081525061118b565b505050565b600080610d0e83611f39565b9050600073ffffffffffffffffffffffffffffffffffffffff168173ffffffffffffffffffffffffffffffffffffffff1603610d7f576040517f08c379a0000000000000000000000000000000000000000000000000000000008152600401610d76906137f7565b60405180910390fd5b80915050919050565b60008073ffffffffffffffffffffffffffffffffffffffff168273ffffffffffffffffffffffffffffffffffffffff1603610df8576040517f08c379a0000000000000000000000000000000000000000000000000000000008152600401610def90613889565b60405180910390fd5b600360008373ffffffffffffffffffffffffffffffffffffffff1673ffffffffffffffffffffffffffffffffffffffff168152602001908152602001600020549050919050565b6000610e4b6007611f76565b6000610e576007611e3a565b9050610e633382611f8c565b610e6d81856121a9565b610e77818461224d565b8091505092915050565b606060018054610e90906134ec565b80601f0160208091040260200160405190810160405280929190818152602001828054610ebc906134ec565b8015610f095780601f10610ede57610100808354040283529160200191610f09565b820191906000526020600020905b815481529060010190602001808311610eec57829003601f168201915b5050505050905090565b60606000610f216007611e3a565b90506000610f2f6008611e3a565b610f396007611e3a565b610f4391906138d8565b90506000808267ffffffffffffffff811115610f6257610f61612f16565b5b604051908082528060200260200182016040528015610f9b57816020015b610f88612b19565b815260200190600190039081610f805790505b50905060005b8481101561116a573073ffffffffffffffffffffffffffffffffffffffff16600b6000600184610fd1919061390c565b815260200190815260200160002060020160009054906101000a900473ffffffffffffffffffffffffffffffffffffffff1673ffffffffffffffffffffffffffffffffffffffff160361115d57600060018261102d919061390c565b90506000600b60008381526020019081526020016000209050806040518060a0016040529081600082015481526020016001820160009054906101000a900473ffffffffffffffffffffffffffffffffffffffff1673ffffffffffffffffffffffffffffffffffffffff1673ffffffffffffffffffffffffffffffffffffffff1681526020016002820160009054906101000a900473ffffffffffffffffffffffffffffffffffffffff1673ffffffffffffffffffffffffffffffffffffffff1673ffffffffffffffffffffffffffffffffffffffff168152602001600382015481526020016004820160009054906101000a900460ff1615151515815250508486815181106111405761113f613940565b5b6020026020010181905250600185611158919061390c565b945050505b8080600101915050610fa1565b508094505050505090565b611187611180611d79565b8383612450565b5050565b61119c611196611d79565b83611ea4565b6111db576040517f08c379a00000000000000000000000000000000000000000000000000000000081526004016111d29061378b565b60405180910390fd5b6111e7848484846125bc565b50505050565b606060006111fb6007611e3a565b905060008060005b8381101561129d573373ffffffffffffffffffffffffffffffffffffffff16600b6000600184611233919061390c565b815260200190815260200160002060020160009054906101000a900473ffffffffffffffffffffffffffffffffffffffff1673ffffffffffffffffffffffffffffffffffffffff16036112905760018361128d919061390c565b92505b8080600101915050611203565b5060008267ffffffffffffffff8111156112ba576112b9612f16565b5b6040519080825280602002602001820160405280156112f357816020015b6112e0612b19565b8152602001906001900390816112d85790505b50905060005b848110156114c2573373ffffffffffffffffffffffffffffffffffffffff16600b6000600184611329919061390c565b815260200190815260200160002060020160009054906101000a900473ffffffffffffffffffffffffffffffffffffffff1673ffffffffffffffffffffffffffffffffffffffff16036114b5576000600182611385919061390c565b90506000600b60008381526020019081526020016000209050806040518060a0016040529081600082015481526020016001820160009054906101000a900473ffffffffffffffffffffffffffffffffffffffff1673ffffffffffffffffffffffffffffffffffffffff1673ffffffffffffffffffffffffffffffffffffffff1681526020016002820160009054906101000a900473ffffffffffffffffffffffffffffffffffffffff1673ffffffffffffffffffffffffffffffffffffffff1673ffffffffffffffffffffffffffffffffffffffff168152602001600382015481526020016004820160009054906101000a900460ff16151515158152505084868151811061149857611497613940565b5b60200260200101819052506001856114b0919061390c565b945050505b80806001019150506112f9565b508094505050505090565b60606114d882611d2e565b60006006600084815260200190815260200160002080546114f8906134ec565b80601f0160208091040260200160405190810160405280929190818152602001828054611524906134ec565b80156115715780601f1061154657610100808354040283529160200191611571565b820191906000526020600020905b81548152906001019060200180831161155457829003601f168201915b505050505090506000611582612618565b905060008151036115975781925050506115da565b6000825111156115cc5780826040516020016115b49291906139ab565b604051602081830303815290604052925050506115da565b6115d58461262f565b925050505b919050565b606060006115ed6007611e3a565b905060008060005b8381101561168f573373ffffffffffffffffffffffffffffffffffffffff16600b6000600184611625919061390c565b815260200190815260200160002060010160009054906101000a900473ffffffffffffffffffffffffffffffffffffffff1673ffffffffffffffffffffffffffffffffffffffff16036116825760018361167f919061390c565b92505b80806001019150506115f5565b5060008267ffffffffffffffff8111156116ac576116ab612f16565b5b6040519080825280602002602001820160405280156116e557816020015b6116d2612b19565b8152602001906001900390816116ca5790505b50905060005b848110156118b4573373ffffffffffffffffffffffffffffffffffffffff16600b600060018461171b919061390c565b815260200190815260200160002060010160009054906101000a900473ffffffffffffffffffffffffffffffffffffffff1673ffffffffffffffffffffffffffffffffffffffff16036118a7576000600182611777919061390c565b90506000600b60008381526020019081526020016000209050806040518060a0016040529081600082015481526020016001820160009054906101000a900473ffffffffffffffffffffffffffffffffffffffff1673ffffffffffffffffffffffffffffffffffffffff1673ffffffffffffffffffffffffffffffffffffffff1681526020016002820160009054906101000a900473ffffffffffffffffffffffffffffffffffffffff1673ffffffffffffffffffffffffffffffffffffffff1673ffffffffffffffffffffffffffffffffffffffff168152602001600382015481526020016004820160009054906101000a900460ff16151515158152505084868151811061188a57611889613940565b5b60200260200101819052506001856118a2919061390c565b945050505b80806001019150506116eb565b508094505050505090565b6000600560008473ffffffffffffffffffffffffffffffffffffffff1673ffffffffffffffffffffffffffffffffffffffff16815260200190815260200160002060008373ffffffffffffffffffffffffffffffffffffffff1673ffffffffffffffffffffffffffffffffffffffff16815260200190815260200160002060009054906101000a900460ff16905092915050565b60007f80ac58cd000000000000000000000000000000000000000000000000000000007bffffffffffffffffffffffffffffffffffffffffffffffffffffffff1916827bffffffffffffffffffffffffffffffffffffffffffffffffffffffff19161480611a1e57507f5b5e139f000000000000000000000000000000000000000000000000000000007bffffffffffffffffffffffffffffffffffffffffffffffffffffffff1916827bffffffffffffffffffffffffffffffffffffffffffffffffffffffff1916145b80611a2e5750611a2d82612697565b5b9050919050565b8273ffffffffffffffffffffffffffffffffffffffff16611a5582610d02565b73ffffffffffffffffffffffffffffffffffffffff1614611aab576040517f08c379a0000000000000000000000000000000000000000000000000000000008152600401611aa290613a41565b60405180910390fd5b600073ffffffffffffffffffffffffffffffffffffffff168273ffffffffffffffffffffffffffffffffffffffff1603611b1a576040517f08c379a0000000000000000000000000000000000000000000000000000000008152600401611b1190613ad3565b60405180910390fd5b611b278383836001612701565b8273ffffffffffffffffffffffffffffffffffffffff16611b4782610d02565b73ffffffffffffffffffffffffffffffffffffffff1614611b9d576040517f08c379a0000000000000000000000000000000000000000000000000000000008152600401611b9490613a41565b60405180910390fd5b6004600082815260200190815260200160002060006101000a81549073ffffffffffffffffffffffffffffffffffffffff02191690556001600360008573ffffffffffffffffffffffffffffffffffffffff1673ffffffffffffffffffffffffffffffffffffffff168152602001908152602001600020600082825403925050819055506001600360008473ffffffffffffffffffffffffffffffffffffffff1673ffffffffffffffffffffffffffffffffffffffff16815260200190815260200160002060008282540192505081905550816002600083815260200190815260200160002060006101000a81548173ffffffffffffffffffffffffffffffffffffffff021916908373ffffffffffffffffffffffffffffffffffffffff160217905550808273ffffffffffffffffffffffffffffffffffffffff168473ffffffffffffffffffffffffffffffffffffffff167fddf252ad1be2c89b69c2b068fc378daa952ba7f163c4a11628f55a4df523b3ef60405160405180910390a4611d298383836001612707565b505050565b611d378161270d565b611d76576040517f08c379a0000000000000000000000000000000000000000000000000000000008152600401611d6d906137f7565b60405180910390fd5b50565b600033905090565b816004600083815260200190815260200160002060006101000a81548173ffffffffffffffffffffffffffffffffffffffff021916908373ffffffffffffffffffffffffffffffffffffffff160217905550808273ffffffffffffffffffffffffffffffffffffffff16611df483610d02565b73ffffffffffffffffffffffffffffffffffffffff167f8c5be1e5ebec7d5bd14f71427d1e84f3dd0314c0f7b2291e5b200ac8c7c3b92560405160405180910390a45050565b600081600001549050919050565b60008160000154905060008111611e94576040517f08c379a0000000000000000000000000000000000000000000000000000000008152600401611e8b90613b3f565b60405180910390fd5b6001810382600001819055505050565b600080611eb083610d02565b90508073ffffffffffffffffffffffffffffffffffffffff168473ffffffffffffffffffffffffffffffffffffffff161480611ef25750611ef181856118bf565b5b80611f3057508373ffffffffffffffffffffffffffffffffffffffff16611f18846108e1565b73ffffffffffffffffffffffffffffffffffffffff16145b91505092915050565b60006002600083815260200190815260200160002060009054906101000a900473ffffffffffffffffffffffffffffffffffffffff169050919050565b6001816000016000828254019250508190555050565b600073ffffffffffffffffffffffffffffffffffffffff168273ffffffffffffffffffffffffffffffffffffffff1603611ffb576040517f08c379a0000000000000000000000000000000000000000000000000000000008152600401611ff290613bab565b60405180910390fd5b6120048161270d565b15612044576040517f08c379a000000000000000000000000000000000000000000000000000000000815260040161203b90613c17565b60405180910390fd5b612052600083836001612701565b61205b8161270d565b1561209b576040517f08c379a000000000000000000000000000000000000000000000000000000000815260040161209290613c17565b60405180910390fd5b6001600360008473ffffffffffffffffffffffffffffffffffffffff1673ffffffffffffffffffffffffffffffffffffffff16815260200190815260200160002060008282540192505081905550816002600083815260200190815260200160002060006101000a81548173ffffffffffffffffffffffffffffffffffffffff021916908373ffffffffffffffffffffffffffffffffffffffff160217905550808273ffffffffffffffffffffffffffffffffffffffff16600073ffffffffffffffffffffffffffffffffffffffff167fddf252ad1be2c89b69c2b068fc378daa952ba7f163c4a11628f55a4df523b3ef60405160405180910390a46121a5600083836001612707565b5050565b6121b28261270d565b6121f1576040517f08c379a00000000000000000000000000000000000000000000000000000000081526004016121e890613ca9565b60405180910390fd5b806006600084815260200190815260200160002090816122119190613e75565b507ff8e1a15aba9398e019f0b49df1a4fde98ee17ae345cb5f6b5e2c27f5033e8ce7826040516122419190612e71565b60405180910390a15050565b60008103612290576040517f08c379a000000000000000000000000000000000000000000000000000000000815260040161228790613f93565b60405180910390fd5b600a5434146122d4576040517f08c379a00000000000000000000000000000000000000000000000000000000081526004016122cb906136f9565b60405180910390fd5b6040518060a001604052808381526020013373ffffffffffffffffffffffffffffffffffffffff1681526020013073ffffffffffffffffffffffffffffffffffffffff16815260200182815260200160001515815250600b60008481526020019081526020016000206000820151816000015560208201518160010160006101000a81548173ffffffffffffffffffffffffffffffffffffffff021916908373ffffffffffffffffffffffffffffffffffffffff16021790555060408201518160020160006101000a81548173ffffffffffffffffffffffffffffffffffffffff021916908373ffffffffffffffffffffffffffffffffffffffff1602179055506060820151816003015560808201518160040160006101000a81548160ff02191690831515021790555090505061240d333084611a35565b817fdebdb32cb5230ab727c9c361b16fdb2015df225c10e6a3e7f60ecd5dc5be451633308460006040516124449493929190613fb3565b60405180910390a25050565b8173ffffffffffffffffffffffffffffffffffffffff168373ffffffffffffffffffffffffffffffffffffffff16036124be576040517f08c379a00000000000000000000000000000000000000000000000000000000081526004016124b590614044565b60405180910390fd5b80600560008573ffffffffffffffffffffffffffffffffffffffff1673ffffffffffffffffffffffffffffffffffffffff16815260200190815260200160002060008473ffffffffffffffffffffffffffffffffffffffff1673ffffffffffffffffffffffffffffffffffffffff16815260200190815260200160002060006101000a81548160ff0219169083151502179055508173ffffffffffffffffffffffffffffffffffffffff168373ffffffffffffffffffffffffffffffffffffffff167f17307eab39ab6107e8899845ad3d59bd9653f200f220920489ca2b5937696c31836040516125af9190612c2a565b60405180910390a3505050565b6125c7848484611a35565b6125d38484848461274e565b612612576040517f08c379a0000000000000000000000000000000000000000000000000000000008152600401612609906140d6565b60405180910390fd5b50505050565b606060405180602001604052806000815250905090565b606061263a82611d2e565b6000612644612618565b90506000815111612664576040518060200160405280600081525061268f565b8061266e846128d5565b60405160200161267f9291906139ab565b6040516020818303038152906040525b915050919050565b60007f01ffc9a7000000000000000000000000000000000000000000000000000000007bffffffffffffffffffffffffffffffffffffffffffffffffffffffff1916827bffffffffffffffffffffffffffffffffffffffffffffffffffffffff1916149050919050565b50505050565b50505050565b60008073ffffffffffffffffffffffffffffffffffffffff1661272f83611f39565b73ffffffffffffffffffffffffffffffffffffffff1614159050919050565b600061276f8473ffffffffffffffffffffffffffffffffffffffff166129a3565b156128c8578373ffffffffffffffffffffffffffffffffffffffff1663150b7a02612798611d79565b8786866040518563ffffffff1660e01b81526004016127ba949392919061414b565b6020604051808303816000875af19250505080156127f657506040513d601f19601f820116820180604052508101906127f391906141ac565b60015b612878573d8060008114612826576040519150601f19603f3d011682016040523d82523d6000602084013e61282b565b606091505b506000815103612870576040517f08c379a0000000000000000000000000000000000000000000000000000000008152600401612867906140d6565b60405180910390fd5b805181602001fd5b63150b7a0260e01b7bffffffffffffffffffffffffffffffffffffffffffffffffffffffff1916817bffffffffffffffffffffffffffffffffffffffffffffffffffffffff1916149150506128cd565b600190505b949350505050565b6060600060016128e4846129c6565b01905060008167ffffffffffffffff81111561290357612902612f16565b5b6040519080825280601f01601f1916602001820160405280156129355781602001600182028036833780820191505090505b509050600082602001820190505b600115612998578080600190039150507f3031323334353637383961626364656600000000000000000000000000000000600a86061a8153600a858161298c5761298b6141d9565b5b04945060008503612943575b819350505050919050565b6000808273ffffffffffffffffffffffffffffffffffffffff163b119050919050565b600080600090507a184f03e93ff9f4daa797ed6e38ed64bf6a1f0100000000000000008310612a24577a184f03e93ff9f4daa797ed6e38ed64bf6a1f0100000000000000008381612a1a57612a196141d9565b5b0492506040810190505b6d04ee2d6d415b85acef81000000008310612a61576d04ee2d6d415b85acef81000000008381612a5757612a566141d9565b5b0492506020810190505b662386f26fc100008310612a9057662386f26fc100008381612a8657612a856141d9565b5b0492506010810190505b6305f5e1008310612ab9576305f5e1008381612aaf57612aae6141d9565b5b0492506008810190505b6127108310612ade576127108381612ad457612ad36141d9565b5b0492506004810190505b60648310612b015760648381612af757612af66141d9565b5b0492506002810190505b600a8310612b10576001810190505b80915050919050565b6040518060a0016040528060008152602001600073ffffffffffffffffffffffffffffffffffffffff168152602001600073ffffffffffffffffffffffffffffffffffffffff168152602001600081526020016000151581525090565b6000604051905090565b600080fd5b600080fd5b60007fffffffff0000000000000000000000000000000000000000000000000000000082169050919050565b612bbf81612b8a565b8114612bca57600080fd5b50565b600081359050612bdc81612bb6565b92915050565b600060208284031215612bf857612bf7612b80565b5b6000612c0684828501612bcd565b91505092915050565b60008115159050919050565b612c2481612c0f565b82525050565b6000602082019050612c3f6000830184612c1b565b92915050565b6000819050919050565b612c5881612c45565b8114612c6357600080fd5b50565b600081359050612c7581612c4f565b92915050565b600060208284031215612c9157612c90612b80565b5b6000612c9f84828501612c66565b91505092915050565b600081519050919050565b600082825260208201905092915050565b60005b83811015612ce2578082015181840152602081019050612cc7565b60008484015250505050565b6000601f19601f8301169050919050565b6000612d0a82612ca8565b612d148185612cb3565b9350612d24818560208601612cc4565b612d2d81612cee565b840191505092915050565b60006020820190508181036000830152612d528184612cff565b905092915050565b600073ffffffffffffffffffffffffffffffffffffffff82169050919050565b6000612d8582612d5a565b9050919050565b612d9581612d7a565b82525050565b6000602082019050612db06000830184612d8c565b92915050565b612dbf81612d7a565b8114612dca57600080fd5b50565b600081359050612ddc81612db6565b92915050565b60008060408385031215612df957612df8612b80565b5b6000612e0785828601612dcd565b9250506020612e1885828601612c66565b9150509250929050565b60008060408385031215612e3957612e38612b80565b5b6000612e4785828601612c66565b9250506020612e5885828601612c66565b9150509250929050565b612e6b81612c45565b82525050565b6000602082019050612e866000830184612e62565b92915050565b600080600060608486031215612ea557612ea4612b80565b5b6000612eb386828701612dcd565b9350506020612ec486828701612dcd565b9250506040612ed586828701612c66565b9150509250925092565b600060208284031215612ef557612ef4612b80565b5b6000612f0384828501612dcd565b91505092915050565b600080fd5b600080fd5b7f4e487b7100000000000000000000000000000000000000000000000000000000600052604160045260246000fd5b612f4e82612cee565b810181811067ffffffffffffffff82111715612f6d57612f6c612f16565b5b80604052505050565b6000612f80612b76565b9050612f8c8282612f45565b919050565b600067ffffffffffffffff821115612fac57612fab612f16565b5b612fb582612cee565b9050602081019050919050565b82818337600083830152505050565b6000612fe4612fdf84612f91565b612f76565b90508281526020810184848401111561300057612fff612f11565b5b61300b848285612fc2565b509392505050565b600082601f83011261302857613027612f0c565b5b8135613038848260208601612fd1565b91505092915050565b6000806040838503121561305857613057612b80565b5b600083013567ffffffffffffffff81111561307657613075612b85565b5b61308285828601613013565b925050602061309385828601612c66565b9150509250929050565b600081519050919050565b600082825260208201905092915050565b6000819050602082019050919050565b6130d281612c45565b82525050565b60006130e382612d5a565b9050919050565b6130f3816130d8565b82525050565b61310281612c0f565b82525050565b60a08201600082015161311e60008501826130c9565b50602082015161313160208501826130ea565b50604082015161314460408501826130ea565b50606082015161315760608501826130c9565b50608082015161316a60808501826130f9565b50505050565b600061317c8383613108565b60a08301905092915050565b6000602082019050919050565b60006131a08261309d565b6131aa81856130a8565b93506131b5836130b9565b8060005b838110156131e65781516131cd8882613170565b97506131d883613188565b9250506001810190506131b9565b5085935050505092915050565b6000602082019050818103600083015261320d8184613195565b905092915050565b61321e81612c0f565b811461322957600080fd5b50565b60008135905061323b81613215565b92915050565b6000806040838503121561325857613257612b80565b5b600061326685828601612dcd565b92505060206132778582860161322c565b9150509250929050565b600067ffffffffffffffff82111561329c5761329b612f16565b5b6132a582612cee565b9050602081019050919050565b60006132c56132c084613281565b612f76565b9050828152602081018484840111156132e1576132e0612f11565b5b6132ec848285612fc2565b509392505050565b600082601f83011261330957613308612f0c565b5b81356133198482602086016132b2565b91505092915050565b6000806000806080858703121561333c5761333b612b80565b5b600061334a87828801612dcd565b945050602061335b87828801612dcd565b935050604061336c87828801612c66565b925050606085013567ffffffffffffffff81111561338d5761338c612b85565b5b613399878288016132f4565b91505092959194509250565b600080604083850312156133bc576133bb612b80565b5b60006133ca85828601612dcd565b92505060206133db85828601612dcd565b9150509250929050565b7f796f75206172206e6f74206f776e657220000000000000000000000000000000600082015250565b600061341b601183612cb3565b9150613426826133e5565b602082019050919050565b6000602082019050818103600083015261344a8161340e565b9050919050565b7f50726963654d757374426541736b696e67507269636500000000000000000000600082015250565b6000613487601683612cb3565b915061349282613451565b602082019050919050565b600060208201905081810360008301526134b68161347a565b9050919050565b7f4e487b7100000000000000000000000000000000000000000000000000000000600052602260045260246000fd5b6000600282049050600182168061350457607f821691505b602082108103613517576135166134bd565b5b50919050565b7f4552433732313a20617070726f76616c20746f2063757272656e74206f776e6560008201527f7200000000000000000000000000000000000000000000000000000000000000602082015250565b6000613579602183612cb3565b91506135848261351d565b604082019050919050565b600060208201905081810360008301526135a88161356c565b9050919050565b7f4552433732313a20617070726f76652063616c6c6572206973206e6f7420746f60008201527f6b656e206f776e6572206f7220617070726f76656420666f7220616c6c000000602082015250565b600061360b603d83612cb3565b9150613616826135af565b604082019050919050565b6000602082019050818103600083015261363a816135fe565b9050919050565b7f596f754172654e6f744f776e6572000000000000000000000000000000000000600082015250565b6000613677600e83612cb3565b915061368282613641565b602082019050919050565b600060208201905081810360008301526136a68161366a565b9050919050565b7f50726963654d75737442654571546f4c69737450726963650000000000000000600082015250565b60006136e3601883612cb3565b91506136ee826136ad565b602082019050919050565b60006020820190508181036000830152613712816136d6565b9050919050565b7f4552433732313a2063616c6c6572206973206e6f7420746f6b656e206f776e6560008201527f72206f7220617070726f76656400000000000000000000000000000000000000602082015250565b6000613775602d83612cb3565b915061378082613719565b604082019050919050565b600060208201905081810360008301526137a481613768565b9050919050565b7f4552433732313a20696e76616c696420746f6b656e2049440000000000000000600082015250565b60006137e1601883612cb3565b91506137ec826137ab565b602082019050919050565b60006020820190508181036000830152613810816137d4565b9050919050565b7f4552433732313a2061646472657373207a65726f206973206e6f74206120766160008201527f6c6964206f776e65720000000000000000000000000000000000000000000000602082015250565b6000613873602983612cb3565b915061387e82613817565b604082019050919050565b600060208201905081810360008301526138a281613866565b9050919050565b7f4e487b7100000000000000000000000000000000000000000000000000000000600052601160045260246000fd5b60006138e382612c45565b91506138ee83612c45565b9250828203905081811115613906576139056138a9565b5b92915050565b600061391782612c45565b915061392283612c45565b925082820190508082111561393a576139396138a9565b5b92915050565b7f4e487b7100000000000000000000000000000000000000000000000000000000600052603260045260246000fd5b600081905092915050565b600061398582612ca8565b61398f818561396f565b935061399f818560208601612cc4565b80840191505092915050565b60006139b7828561397a565b91506139c3828461397a565b91508190509392505050565b7f4552433732313a207472616e736665722066726f6d20696e636f72726563742060008201527f6f776e6572000000000000000000000000000000000000000000000000000000602082015250565b6000613a2b602583612cb3565b9150613a36826139cf565b604082019050919050565b60006020820190508181036000830152613a5a81613a1e565b9050919050565b7f4552433732313a207472616e7366657220746f20746865207a65726f2061646460008201527f7265737300000000000000000000000000000000000000000000000000000000602082015250565b6000613abd602483612cb3565b9150613ac882613a61565b604082019050919050565b60006020820190508181036000830152613aec81613ab0565b9050919050565b7f436f756e7465723a2064656372656d656e74206f766572666c6f770000000000600082015250565b6000613b29601b83612cb3565b9150613b3482613af3565b602082019050919050565b60006020820190508181036000830152613b5881613b1c565b9050919050565b7f4552433732313a206d696e7420746f20746865207a65726f2061646472657373600082015250565b6000613b95602083612cb3565b9150613ba082613b5f565b602082019050919050565b60006020820190508181036000830152613bc481613b88565b9050919050565b7f4552433732313a20746f6b656e20616c7265616479206d696e74656400000000600082015250565b6000613c01601c83612cb3565b9150613c0c82613bcb565b602082019050919050565b60006020820190508181036000830152613c3081613bf4565b9050919050565b7f45524337323155524953746f726167653a2055524920736574206f66206e6f6e60008201527f6578697374656e7420746f6b656e000000000000000000000000000000000000602082015250565b6000613c93602e83612cb3565b9150613c9e82613c37565b604082019050919050565b60006020820190508181036000830152613cc281613c86565b9050919050565b60008190508160005260206000209050919050565b60006020601f8301049050919050565b600082821b905092915050565b600060088302613d2b7fffffffffffffffffffffffffffffffffffffffffffffffffffffffffffffffff82613cee565b613d358683613cee565b95508019841693508086168417925050509392505050565b6000819050919050565b6000613d72613d6d613d6884612c45565b613d4d565b612c45565b9050919050565b6000819050919050565b613d8c83613d57565b613da0613d9882613d79565b848454613cfb565b825550505050565b600090565b613db5613da8565b613dc0818484613d83565b505050565b5b81811015613de457613dd9600082613dad565b600181019050613dc6565b5050565b601f821115613e2957613dfa81613cc9565b613e0384613cde565b81016020851015613e12578190505b613e26613e1e85613cde565b830182613dc5565b50505b505050565b600082821c905092915050565b6000613e4c60001984600802613e2e565b1980831691505092915050565b6000613e658383613e3b565b9150826002028217905092915050565b613e7e82612ca8565b67ffffffffffffffff811115613e9757613e96612f16565b5b613ea182546134ec565b613eac828285613de8565b600060209050601f831160018114613edf5760008415613ecd578287015190505b613ed78582613e59565b865550613f3f565b601f198416613eed86613cc9565b60005b82811015613f1557848901518255600182019150602085019450602081019050613ef0565b86831015613f325784890151613f2e601f891682613e3b565b8355505b6001600288020188555050505b505050505050565b7f50726963654d7573744265477265617465725468616e5a65726f000000000000600082015250565b6000613f7d601a83612cb3565b9150613f8882613f47565b602082019050919050565b60006020820190508181036000830152613fac81613f70565b9050919050565b6000608082019050613fc86000830187612d8c565b613fd56020830186612d8c565b613fe26040830185612e62565b613fef6060830184612c1b565b95945050505050565b7f4552433732313a20617070726f766520746f2063616c6c657200000000000000600082015250565b600061402e601983612cb3565b915061403982613ff8565b602082019050919050565b6000602082019050818103600083015261405d81614021565b9050919050565b7f4552433732313a207472616e7366657220746f206e6f6e20455243373231526560008201527f63656976657220696d706c656d656e7465720000000000000000000000000000602082015250565b60006140c0603283612cb3565b91506140cb82614064565b604082019050919050565b600060208201905081810360008301526140ef816140b3565b9050919050565b600081519050919050565b600082825260208201905092915050565b600061411d826140f6565b6141278185614101565b9350614137818560208601612cc4565b61414081612cee565b840191505092915050565b60006080820190506141606000830187612d8c565b61416d6020830186612d8c565b61417a6040830185612e62565b818103606083015261418c8184614112565b905095945050505050565b6000815190506141a681612bb6565b92915050565b6000602082840312156141c2576141c1612b80565b5b60006141d084828501614197565b91505092915050565b7f4e487b7100000000000000000000000000000000000000000000000000000000600052601260045260246000fdfea2646970667358221220a1e98a0cab4a4f14cbeed0c4fd5dce160ea4e916e055b6feca2f1b96d7b8aed464736f6c634300081c0033",
  "linkReferences": {},
  "deployedLinkReferences": {}
}